{
  "contractName": "cert",
  "abi": [
    {
      "inputs": [],
      "stateMutability": "nonpayable",
      "type": "constructor"
    },
    {
      "inputs": [
        {
          "internalType": "address",
          "name": "instad",
          "type": "address"
        },
        {
          "internalType": "string",
          "name": "_name",
          "type": "string"
        },
        {
          "internalType": "string",
          "name": "_acr",
          "type": "string"
        },
        {
          "internalType": "string",
          "name": "_link",
          "type": "string"
        },
        {
          "internalType": "string[]",
          "name": "_course",
          "type": "string[]"
        }
      ],
      "name": "addInstitute",
      "outputs": [],
      "stateMutability": "nonpayable",
      "type": "function"
    },
    {
      "inputs": [
        {
          "internalType": "address",
          "name": "instad",
          "type": "address"
        }
      ],
      "name": "viewInstitute",
      "outputs": [
        {
          "components": [
            {
              "internalType": "string",
              "name": "name",
              "type": "string"
            },
            {
              "internalType": "string",
              "name": "acr",
              "type": "string"
            },
            {
              "internalType": "string",
              "name": "link",
              "type": "string"
            },
            {
              "internalType": "string[]",
              "name": "course",
              "type": "string[]"
            },
            {
              "internalType": "bool",
              "name": "del",
              "type": "bool"
            }
          ],
          "internalType": "struct cert.institute",
          "name": "i",
          "type": "tuple"
        }
      ],
      "stateMutability": "view",
      "type": "function",
      "constant": true
    },
    {
      "inputs": [
        {
          "internalType": "address",
          "name": "instad",
          "type": "address"
        },
        {
          "internalType": "string",
          "name": "_name",
          "type": "string"
        },
        {
          "internalType": "string",
          "name": "_acr",
          "type": "string"
        },
        {
          "internalType": "string",
          "name": "_link",
          "type": "string"
        },
        {
          "internalType": "string[]",
          "name": "_course",
          "type": "string[]"
        }
      ],
      "name": "updateInstitute",
      "outputs": [],
      "stateMutability": "nonpayable",
      "type": "function"
    },
    {
      "inputs": [
        {
          "internalType": "address",
          "name": "instad",
          "type": "address"
        }
      ],
      "name": "deleteInstitute",
      "outputs": [],
      "stateMutability": "nonpayable",
      "type": "function"
    },
    {
      "inputs": [],
      "name": "viewAllInstitutes",
      "outputs": [
        {
          "components": [
            {
              "internalType": "string",
              "name": "name",
              "type": "string"
            },
            {
              "internalType": "string",
              "name": "acr",
              "type": "string"
            },
            {
              "internalType": "string",
              "name": "link",
              "type": "string"
            },
            {
              "internalType": "string[]",
              "name": "course",
              "type": "string[]"
            },
            {
              "internalType": "bool",
              "name": "del",
              "type": "bool"
            }
          ],
          "internalType": "struct cert.institute[]",
          "name": "",
          "type": "tuple[]"
        }
      ],
      "stateMutability": "view",
      "type": "function",
      "constant": true
    },
    {
      "inputs": [
        {
          "internalType": "address",
          "name": "studad",
          "type": "address"
        },
        {
          "internalType": "string",
          "name": "_name",
          "type": "string"
        }
      ],
      "name": "addStudent",
      "outputs": [],
      "stateMutability": "nonpayable",
      "type": "function"
    },
    {
      "inputs": [
        {
          "internalType": "address",
          "name": "certad",
          "type": "address"
        },
        {
          "internalType": "address",
          "name": "instad",
          "type": "address"
        },
        {
          "internalType": "address",
          "name": "studad",
          "type": "address"
        },
        {
          "internalType": "string",
          "name": "_course",
          "type": "string"
        },
        {
          "internalType": "int256",
          "name": "dur",
          "type": "int256"
        }
      ],
      "name": "issueCertificate",
      "outputs": [],
      "stateMutability": "nonpayable",
      "type": "function"
    },
    {
      "inputs": [
        {
          "internalType": "address",
          "name": "certad",
          "type": "address"
        }
      ],
      "name": "revCertificate",
      "outputs": [],
      "stateMutability": "nonpayable",
      "type": "function"
    },
    {
      "inputs": [
        {
          "internalType": "address",
          "name": "certad",
          "type": "address"
        }
      ],
      "name": "viewCertificate",
      "outputs": [
        {
          "components": [
            {
              "internalType": "address",
              "name": "stud",
              "type": "address"
            },
            {
              "internalType": "address",
              "name": "inst",
              "type": "address"
            },
            {
              "internalType": "string",
              "name": "course",
              "type": "string"
            },
            {
              "internalType": "int256",
              "name": "duration",
              "type": "int256"
            },
            {
              "internalType": "bool",
              "name": "del",
              "type": "bool"
            }
          ],
          "internalType": "struct cert.certificate",
          "name": "",
          "type": "tuple"
        }
      ],
      "stateMutability": "view",
      "type": "function",
      "constant": true
    },
    {
      "inputs": [
        {
          "internalType": "address",
          "name": "studad",
          "type": "address"
        }
      ],
      "name": "viewStudCert",
      "outputs": [
        {
          "components": [
            {
              "internalType": "address",
              "name": "stud",
              "type": "address"
            },
            {
              "internalType": "address",
              "name": "inst",
              "type": "address"
            },
            {
              "internalType": "string",
              "name": "course",
              "type": "string"
            },
            {
              "internalType": "int256",
              "name": "duration",
              "type": "int256"
            },
            {
              "internalType": "bool",
              "name": "del",
              "type": "bool"
            }
          ],
          "internalType": "struct cert.certificate[]",
          "name": "",
          "type": "tuple[]"
        }
      ],
      "stateMutability": "view",
      "type": "function",
      "constant": true
    }
  ],
  "bytecode": "0x60806040525f6003555f600655348015610017575f80fd5b50335f806101000a81548173ffffffffffffffffffffffffffffffffffffffff021916908373ffffffffffffffffffffffffffffffffffffffff160217905550612cc1806100645f395ff3fe608060405234801561000f575f80fd5b506004361061009c575f3560e01c8063a57d25b911610064578063a57d25b914610156578063af23ab4014610186578063d94ac885146101a2578063e0d37926146101be578063e6feee6a146101da5761009c565b80631d0a7207146100a05780634077ea9c146100bc5780635e8b8091146100da57806364dbbaa2146100f65780638f8b501c14610126575b5f80fd5b6100ba60048036038101906100b59190612078565b6101f6565b005b6100c461046e565b6040516100d1919061239d565b60405180910390f35b6100f460048036038101906100ef91906123bd565b6108d5565b005b610110600480360381019061010b9190612417565b610924565b60405161011d91906124d3565b60405180910390f35b610140600480360381019061013b9190612417565b610ad8565b60405161014d9190612621565b60405180910390f35b610170600480360381019061016b9190612417565b61123f565b60405161017d91906126c9565b60405180910390f35b6101a0600480360381019061019b91906127cb565b6116c1565b005b6101bc60048036038101906101b79190612417565b611942565b005b6101d860048036038101906101d39190612417565b611aaf565b005b6101f460048036038101906101ef91906127cb565b611b71565b005b6001151560015f8673ffffffffffffffffffffffffffffffffffffffff1673ffffffffffffffffffffffffffffffffffffffff1681526020019081526020015f206004015f9054906101000a900460ff1615150315610467576001151560015f3373ffffffffffffffffffffffffffffffffffffffff1673ffffffffffffffffffffffffffffffffffffffff1681526020019081526020015f206004015f9054906101000a900460ff1615150315610467576040518060a001604052808573ffffffffffffffffffffffffffffffffffffffff1681526020018473ffffffffffffffffffffffffffffffffffffffff1681526020018381526020018281526020015f151581525060075f8773ffffffffffffffffffffffffffffffffffffffff1673ffffffffffffffffffffffffffffffffffffffff1681526020019081526020015f205f820151815f015f6101000a81548173ffffffffffffffffffffffffffffffffffffffff021916908373ffffffffffffffffffffffffffffffffffffffff1602179055506020820151816001015f6101000a81548173ffffffffffffffffffffffffffffffffffffffff021916908373ffffffffffffffffffffffffffffffffffffffff16021790555060408201518160020190816103d99190612ab5565b50606082015181600301556080820151816004015f6101000a81548160ff021916908315150217905550905050600885908060018154018082558091505060019003905f5260205f20015f9091909190916101000a81548173ffffffffffffffffffffffffffffffffffffffff021916908373ffffffffffffffffffffffffffffffffffffffff1602179055505b5050505050565b60605f60035467ffffffffffffffff81111561048d5761048c611f21565b5b6040519080825280602002602001820160405280156104c657816020015b6104b3611d25565b8152602001906001900390816104ab5790505b5090505f805b6002805490508110156108cc575f151560015f600284815481106104f3576104f2612b84565b5b905f5260205f20015f9054906101000a900473ffffffffffffffffffffffffffffffffffffffff1673ffffffffffffffffffffffffffffffffffffffff1673ffffffffffffffffffffffffffffffffffffffff1681526020019081526020015f206004015f9054906101000a900460ff161515036108b95760015f6002838154811061058257610581612b84565b5b905f5260205f20015f9054906101000a900473ffffffffffffffffffffffffffffffffffffffff1673ffffffffffffffffffffffffffffffffffffffff1673ffffffffffffffffffffffffffffffffffffffff1681526020019081526020015f206040518060a00160405290815f820180546105fd906128df565b80601f0160208091040260200160405190810160405280929190818152602001828054610629906128df565b80156106745780601f1061064b57610100808354040283529160200191610674565b820191905f5260205f20905b81548152906001019060200180831161065757829003601f168201915b5050505050815260200160018201805461068d906128df565b80601f01602080910402602001604051908101604052809291908181526020018280546106b9906128df565b80156107045780601f106106db57610100808354040283529160200191610704565b820191905f5260205f20905b8154815290600101906020018083116106e757829003601f168201915b5050505050815260200160028201805461071d906128df565b80601f0160208091040260200160405190810160405280929190818152602001828054610749906128df565b80156107945780601f1061076b57610100808354040283529160200191610794565b820191905f5260205f20905b81548152906001019060200180831161077757829003601f168201915b5050505050815260200160038201805480602002602001604051908101604052809291908181526020015f905b82821015610869578382905f5260205f200180546107de906128df565b80601f016020809104026020016040519081016040528092919081815260200182805461080a906128df565b80156108555780601f1061082c57610100808354040283529160200191610855565b820191905f5260205f20905b81548152906001019060200180831161083857829003601f168201915b5050505050815260200190600101906107c1565b505050508152602001600482015f9054906101000a900460ff16151515158152505083838151811061089e5761089d612b84565b5b60200260200101819052506001826108b69190612bde565b91505b80806108c490612c11565b9150506104cc565b50819250505090565b8060045f8473ffffffffffffffffffffffffffffffffffffffff1673ffffffffffffffffffffffffffffffffffffffff1681526020019081526020015f20908161091f9190612ab5565b505050565b61092c611d55565b60075f8373ffffffffffffffffffffffffffffffffffffffff1673ffffffffffffffffffffffffffffffffffffffff1681526020019081526020015f206040518060a00160405290815f82015f9054906101000a900473ffffffffffffffffffffffffffffffffffffffff1673ffffffffffffffffffffffffffffffffffffffff1673ffffffffffffffffffffffffffffffffffffffff168152602001600182015f9054906101000a900473ffffffffffffffffffffffffffffffffffffffff1673ffffffffffffffffffffffffffffffffffffffff1673ffffffffffffffffffffffffffffffffffffffff168152602001600282018054610a2d906128df565b80601f0160208091040260200160405190810160405280929190818152602001828054610a59906128df565b8015610aa45780601f10610a7b57610100808354040283529160200191610aa4565b820191905f5260205f20905b815481529060010190602001808311610a8757829003601f168201915b5050505050815260200160038201548152602001600482015f9054906101000a900460ff1615151515815250509050919050565b60605f805b600880549050811015610d5e575f151560075f60088481548110610b0457610b03612b84565b5b905f5260205f20015f9054906101000a900473ffffffffffffffffffffffffffffffffffffffff1673ffffffffffffffffffffffffffffffffffffffff1673ffffffffffffffffffffffffffffffffffffffff1681526020019081526020015f206004015f9054906101000a900460ff16151503610d4b578373ffffffffffffffffffffffffffffffffffffffff1660075f60088481548110610baa57610ba9612b84565b5b905f5260205f20015f9054906101000a900473ffffffffffffffffffffffffffffffffffffffff1673ffffffffffffffffffffffffffffffffffffffff1673ffffffffffffffffffffffffffffffffffffffff1681526020019081526020015f205f015f9054906101000a900473ffffffffffffffffffffffffffffffffffffffff1673ffffffffffffffffffffffffffffffffffffffff1603610d4a575f151560015f60075f60088681548110610c6557610c64612b84565b5b905f5260205f20015f9054906101000a900473ffffffffffffffffffffffffffffffffffffffff1673ffffffffffffffffffffffffffffffffffffffff1673ffffffffffffffffffffffffffffffffffffffff1681526020019081526020015f206001015f9054906101000a900473ffffffffffffffffffffffffffffffffffffffff1673ffffffffffffffffffffffffffffffffffffffff1673ffffffffffffffffffffffffffffffffffffffff1681526020019081526020015f206004015f9054906101000a900460ff16151503610d4957600182610d469190612bde565b91505b5b5b8080610d5690612c11565b915050610add565b505f8167ffffffffffffffff811115610d7a57610d79611f21565b5b604051908082528060200260200182016040528015610db357816020015b610da0611d55565b815260200190600190039081610d985790505b5090505f805b83811015611233575f151560075f60088481548110610ddb57610dda612b84565b5b905f5260205f20015f9054906101000a900473ffffffffffffffffffffffffffffffffffffffff1673ffffffffffffffffffffffffffffffffffffffff1673ffffffffffffffffffffffffffffffffffffffff1681526020019081526020015f206004015f9054906101000a900460ff16151503611220578573ffffffffffffffffffffffffffffffffffffffff1660075f60088481548110610e8157610e80612b84565b5b905f5260205f20015f9054906101000a900473ffffffffffffffffffffffffffffffffffffffff1673ffffffffffffffffffffffffffffffffffffffff1673ffffffffffffffffffffffffffffffffffffffff1681526020019081526020015f205f015f9054906101000a900473ffffffffffffffffffffffffffffffffffffffff1673ffffffffffffffffffffffffffffffffffffffff160361121f575f151560015f60075f60088681548110610f3c57610f3b612b84565b5b905f5260205f20015f9054906101000a900473ffffffffffffffffffffffffffffffffffffffff1673ffffffffffffffffffffffffffffffffffffffff1673ffffffffffffffffffffffffffffffffffffffff1681526020019081526020015f206001015f9054906101000a900473ffffffffffffffffffffffffffffffffffffffff1673ffffffffffffffffffffffffffffffffffffffff1673ffffffffffffffffffffffffffffffffffffffff1681526020019081526020015f206004015f9054906101000a900460ff1615150361121e5760075f6008838154811061102757611026612b84565b5b905f5260205f20015f9054906101000a900473ffffffffffffffffffffffffffffffffffffffff1673ffffffffffffffffffffffffffffffffffffffff1673ffffffffffffffffffffffffffffffffffffffff1681526020019081526020015f206040518060a00160405290815f82015f9054906101000a900473ffffffffffffffffffffffffffffffffffffffff1673ffffffffffffffffffffffffffffffffffffffff1673ffffffffffffffffffffffffffffffffffffffff168152602001600182015f9054906101000a900473ffffffffffffffffffffffffffffffffffffffff1673ffffffffffffffffffffffffffffffffffffffff1673ffffffffffffffffffffffffffffffffffffffff16815260200160028201805461114c906128df565b80601f0160208091040260200160405190810160405280929190818152602001828054611178906128df565b80156111c35780601f1061119a576101008083540402835291602001916111c3565b820191905f5260205f20905b8154815290600101906020018083116111a657829003601f168201915b5050505050815260200160038201548152602001600482015f9054906101000a900460ff16151515158152505083838151811061120357611202612b84565b5b602002602001018190525060018261121b9190612bde565b91505b5b5b808061122b90612c11565b915050610db9565b50819350505050919050565b611247611d25565b60605f6040518060a001604052806040518060400160405280600781526020017f696e76616c69640000000000000000000000000000000000000000000000000081525081526020016040518060400160405280600381526020017f696e76000000000000000000000000000000000000000000000000000000000081525081526020016040518060400160405280600481526020017f6e756c6c0000000000000000000000000000000000000000000000000000000081525081526020018381526020015f151581525090505f8054906101000a900473ffffffffffffffffffffffffffffffffffffffff1673ffffffffffffffffffffffffffffffffffffffff163373ffffffffffffffffffffffffffffffffffffffff16146113705780925050506116bc565b6001151560015f8673ffffffffffffffffffffffffffffffffffffffff1673ffffffffffffffffffffffffffffffffffffffff1681526020019081526020015f206004015f9054906101000a900460ff161515036113d25780925050506116bc565b60015f8573ffffffffffffffffffffffffffffffffffffffff1673ffffffffffffffffffffffffffffffffffffffff1681526020019081526020015f206040518060a00160405290815f82018054611429906128df565b80601f0160208091040260200160405190810160405280929190818152602001828054611455906128df565b80156114a05780601f10611477576101008083540402835291602001916114a0565b820191905f5260205f20905b81548152906001019060200180831161148357829003601f168201915b505050505081526020016001820180546114b9906128df565b80601f01602080910402602001604051908101604052809291908181526020018280546114e5906128df565b80156115305780601f1061150757610100808354040283529160200191611530565b820191905f5260205f20905b81548152906001019060200180831161151357829003601f168201915b50505050508152602001600282018054611549906128df565b80601f0160208091040260200160405190810160405280929190818152602001828054611575906128df565b80156115c05780601f10611597576101008083540402835291602001916115c0565b820191905f5260205f20905b8154815290600101906020018083116115a357829003601f168201915b5050505050815260200160038201805480602002602001604051908101604052809291908181526020015f905b82821015611695578382905f5260205f2001805461160a906128df565b80601f0160208091040260200160405190810160405280929190818152602001828054611636906128df565b80156116815780601f1061165857610100808354040283529160200191611681565b820191905f5260205f20905b81548152906001019060200180831161166457829003601f168201915b5050505050815260200190600101906115ed565b505050508152602001600482015f9054906101000a900460ff161515151581525050925050505b919050565b6001151560015f3373ffffffffffffffffffffffffffffffffffffffff1673ffffffffffffffffffffffffffffffffffffffff1681526020019081526020015f206004015f9054906101000a900460ff161515031561193b578360015f8773ffffffffffffffffffffffffffffffffffffffff1673ffffffffffffffffffffffffffffffffffffffff1681526020019081526020015f205f0190816117669190612ab5565b508260015f8773ffffffffffffffffffffffffffffffffffffffff1673ffffffffffffffffffffffffffffffffffffffff1681526020019081526020015f2060010190816117b49190612ab5565b508160015f8773ffffffffffffffffffffffffffffffffffffffff1673ffffffffffffffffffffffffffffffffffffffff1681526020019081526020015f2060020190816118029190612ab5565b5060015f8673ffffffffffffffffffffffffffffffffffffffff1673ffffffffffffffffffffffffffffffffffffffff1681526020019081526020015f205f8082015f61184f9190611dae565b600182015f61185e9190611dae565b600282015f61186d9190611dae565b600382015f61187c9190611deb565b600482015f6101000a81549060ff021916905550505f5b81518110156119395760015f8773ffffffffffffffffffffffffffffffffffffffff1673ffffffffffffffffffffffffffffffffffffffff1681526020019081526020015f206003018282815181106118ef576118ee612b84565b5b6020026020010151908060018154018082558091505060019003905f5260205f20015f9091909190915090816119259190612ab5565b50808061193190612c11565b915050611893565b505b5050505050565b6001151560015f3373ffffffffffffffffffffffffffffffffffffffff1673ffffffffffffffffffffffffffffffffffffffff1681526020019081526020015f206004015f9054906101000a900460ff1615150315611aac576001151560015f60075f8573ffffffffffffffffffffffffffffffffffffffff1673ffffffffffffffffffffffffffffffffffffffff1681526020019081526020015f206001015f9054906101000a900473ffffffffffffffffffffffffffffffffffffffff1673ffffffffffffffffffffffffffffffffffffffff1673ffffffffffffffffffffffffffffffffffffffff1681526020019081526020015f206004015f9054906101000a900460ff1615150315611aac57600160075f8373ffffffffffffffffffffffffffffffffffffffff1673ffffffffffffffffffffffffffffffffffffffff1681526020019081526020015f206004015f6101000a81548160ff0219169083151502179055505b50565b5f8054906101000a900473ffffffffffffffffffffffffffffffffffffffff1673ffffffffffffffffffffffffffffffffffffffff163373ffffffffffffffffffffffffffffffffffffffff1603611b6e576001805f8373ffffffffffffffffffffffffffffffffffffffff1673ffffffffffffffffffffffffffffffffffffffff1681526020019081526020015f206004015f6101000a81548160ff0219169083151502179055506001600354611b679190612c58565b6003819055505b50565b5f8054906101000a900473ffffffffffffffffffffffffffffffffffffffff1673ffffffffffffffffffffffffffffffffffffffff163373ffffffffffffffffffffffffffffffffffffffff1603611d1e576040518060a001604052808581526020018481526020018381526020018281526020015f151581525060015f8773ffffffffffffffffffffffffffffffffffffffff1673ffffffffffffffffffffffffffffffffffffffff1681526020019081526020015f205f820151815f019081611c3c9190612ab5565b506020820151816001019081611c529190612ab5565b506040820151816002019081611c689190612ab5565b506060820151816003019080519060200190611c85929190611e09565b506080820151816004015f6101000a81548160ff021916908315150217905550905050600285908060018154018082558091505060019003905f5260205f20015f9091909190916101000a81548173ffffffffffffffffffffffffffffffffffffffff021916908373ffffffffffffffffffffffffffffffffffffffff1602179055506001600354611d179190612bde565b6003819055505b5050505050565b6040518060a00160405280606081526020016060815260200160608152602001606081526020015f151581525090565b6040518060a001604052805f73ffffffffffffffffffffffffffffffffffffffff1681526020015f73ffffffffffffffffffffffffffffffffffffffff168152602001606081526020015f81526020015f151581525090565b508054611dba906128df565b5f825580601f10611dcb5750611de8565b601f0160209004905f5260205f2090810190611de79190611e60565b5b50565b5080545f8255905f5260205f2090810190611e069190611e7b565b50565b828054828255905f5260205f20908101928215611e4f579160200282015b82811115611e4e578251829081611e3e9190612ab5565b5091602001919060010190611e27565b5b509050611e5c9190611e7b565b5090565b5b80821115611e77575f815f905550600101611e61565b5090565b5b80821115611e9a575f8181611e919190611dae565b50600101611e7c565b5090565b5f604051905090565b5f80fd5b5f80fd5b5f73ffffffffffffffffffffffffffffffffffffffff82169050919050565b5f611ed882611eaf565b9050919050565b611ee881611ece565b8114611ef2575f80fd5b50565b5f81359050611f0381611edf565b92915050565b5f80fd5b5f80fd5b5f601f19601f8301169050919050565b7f4e487b71000000000000000000000000000000000000000000000000000000005f52604160045260245ffd5b611f5782611f11565b810181811067ffffffffffffffff82111715611f7657611f75611f21565b5b80604052505050565b5f611f88611e9e565b9050611f948282611f4e565b919050565b5f67ffffffffffffffff821115611fb357611fb2611f21565b5b611fbc82611f11565b9050602081019050919050565b828183375f83830152505050565b5f611fe9611fe484611f99565b611f7f565b90508281526020810184848401111561200557612004611f0d565b5b612010848285611fc9565b509392505050565b5f82601f83011261202c5761202b611f09565b5b813561203c848260208601611fd7565b91505092915050565b5f819050919050565b61205781612045565b8114612061575f80fd5b50565b5f813590506120728161204e565b92915050565b5f805f805f60a0868803121561209157612090611ea7565b5b5f61209e88828901611ef5565b95505060206120af88828901611ef5565b94505060406120c088828901611ef5565b935050606086013567ffffffffffffffff8111156120e1576120e0611eab565b5b6120ed88828901612018565b92505060806120fe88828901612064565b9150509295509295909350565b5f81519050919050565b5f82825260208201905092915050565b5f819050602082019050919050565b5f81519050919050565b5f82825260208201905092915050565b5f5b8381101561216b578082015181840152602081019050612150565b5f8484015250505050565b5f61218082612134565b61218a818561213e565b935061219a81856020860161214e565b6121a381611f11565b840191505092915050565b5f81519050919050565b5f82825260208201905092915050565b5f819050602082019050919050565b5f6121e28383612176565b905092915050565b5f602082019050919050565b5f612200826121ae565b61220a81856121b8565b93508360208202850161221c856121c8565b805f5b85811015612257578484038952815161223885826121d7565b9450612243836121ea565b925060208a0199505060018101905061221f565b50829750879550505050505092915050565b5f8115159050919050565b61227d81612269565b82525050565b5f60a083015f8301518482035f86015261229d8282612176565b915050602083015184820360208601526122b78282612176565b915050604083015184820360408601526122d18282612176565b915050606083015184820360608601526122eb82826121f6565b91505060808301516123006080860182612274565b508091505092915050565b5f6123168383612283565b905092915050565b5f602082019050919050565b5f6123348261210b565b61233e8185612115565b93508360208202850161235085612125565b805f5b8581101561238b578484038952815161236c858261230b565b94506123778361231e565b925060208a01995050600181019050612353565b50829750879550505050505092915050565b5f6020820190508181035f8301526123b5818461232a565b905092915050565b5f80604083850312156123d3576123d2611ea7565b5b5f6123e085828601611ef5565b925050602083013567ffffffffffffffff81111561240157612400611eab565b5b61240d85828601612018565b9150509250929050565b5f6020828403121561242c5761242b611ea7565b5b5f61243984828501611ef5565b91505092915050565b61244b81611ece565b82525050565b61245a81612045565b82525050565b5f60a083015f8301516124755f860182612442565b5060208301516124886020860182612442565b50604083015184820360408601526124a08282612176565b91505060608301516124b56060860182612451565b5060808301516124c86080860182612274565b508091505092915050565b5f6020820190508181035f8301526124eb8184612460565b905092915050565b5f81519050919050565b5f82825260208201905092915050565b5f819050602082019050919050565b5f60a083015f8301516125315f860182612442565b5060208301516125446020860182612442565b506040830151848203604086015261255c8282612176565b91505060608301516125716060860182612451565b5060808301516125846080860182612274565b508091505092915050565b5f61259a838361251c565b905092915050565b5f602082019050919050565b5f6125b8826124f3565b6125c281856124fd565b9350836020820285016125d48561250d565b805f5b8581101561260f57848403895281516125f0858261258f565b94506125fb836125a2565b925060208a019950506001810190506125d7565b50829750879550505050505092915050565b5f6020820190508181035f83015261263981846125ae565b905092915050565b5f60a083015f8301518482035f86015261265b8282612176565b915050602083015184820360208601526126758282612176565b9150506040830151848203604086015261268f8282612176565b915050606083015184820360608601526126a982826121f6565b91505060808301516126be6080860182612274565b508091505092915050565b5f6020820190508181035f8301526126e18184612641565b905092915050565b5f67ffffffffffffffff82111561270357612702611f21565b5b602082029050602081019050919050565b5f80fd5b5f61272a612725846126e9565b611f7f565b9050808382526020820190506020840283018581111561274d5761274c612714565b5b835b8181101561279457803567ffffffffffffffff81111561277257612771611f09565b5b80860161277f8982612018565b8552602085019450505060208101905061274f565b5050509392505050565b5f82601f8301126127b2576127b1611f09565b5b81356127c2848260208601612718565b91505092915050565b5f805f805f60a086880312156127e4576127e3611ea7565b5b5f6127f188828901611ef5565b955050602086013567ffffffffffffffff81111561281257612811611eab565b5b61281e88828901612018565b945050604086013567ffffffffffffffff81111561283f5761283e611eab565b5b61284b88828901612018565b935050606086013567ffffffffffffffff81111561286c5761286b611eab565b5b61287888828901612018565b925050608086013567ffffffffffffffff81111561289957612898611eab565b5b6128a58882890161279e565b9150509295509295909350565b7f4e487b71000000000000000000000000000000000000000000000000000000005f52602260045260245ffd5b5f60028204905060018216806128f657607f821691505b602082108103612909576129086128b2565b5b50919050565b5f819050815f5260205f209050919050565b5f6020601f8301049050919050565b5f82821b905092915050565b5f6008830261296b7fffffffffffffffffffffffffffffffffffffffffffffffffffffffffffffffff82612930565b6129758683612930565b95508019841693508086168417925050509392505050565b5f819050919050565b5f819050919050565b5f6129b96129b46129af8461298d565b612996565b61298d565b9050919050565b5f819050919050565b6129d28361299f565b6129e66129de826129c0565b84845461293c565b825550505050565b5f90565b6129fa6129ee565b612a058184846129c9565b505050565b5b81811015612a2857612a1d5f826129f2565b600181019050612a0b565b5050565b601f821115612a6d57612a3e8161290f565b612a4784612921565b81016020851015612a56578190505b612a6a612a6285612921565b830182612a0a565b50505b505050565b5f82821c905092915050565b5f612a8d5f1984600802612a72565b1980831691505092915050565b5f612aa58383612a7e565b9150826002028217905092915050565b612abe82612134565b67ffffffffffffffff811115612ad757612ad6611f21565b5b612ae182546128df565b612aec828285612a2c565b5f60209050601f831160018114612b1d575f8415612b0b578287015190505b612b158582612a9a565b865550612b7c565b601f198416612b2b8661290f565b5f5b82811015612b5257848901518255600182019150602085019450602081019050612b2d565b86831015612b6f5784890151612b6b601f891682612a7e565b8355505b6001600288020188555050505b505050505050565b7f4e487b71000000000000000000000000000000000000000000000000000000005f52603260045260245ffd5b7f4e487b71000000000000000000000000000000000000000000000000000000005f52601160045260245ffd5b5f612be88261298d565b9150612bf38361298d565b9250828201905080821115612c0b57612c0a612bb1565b5b92915050565b5f612c1b8261298d565b91507fffffffffffffffffffffffffffffffffffffffffffffffffffffffffffffffff8203612c4d57612c4c612bb1565b5b600182019050919050565b5f612c628261298d565b9150612c6d8361298d565b9250828203905081811115612c8557612c84612bb1565b5b9291505056fea264697066735822122019361e3f21eeb2facaf3e596c5a74ce3aa1bc72285a8db725d08250522ba617064736f6c63430008140033",
  "immutableReferences": {},
  "source": "// SPDX-License-Identifier: MIT\npragma solidity >=0.7.0 <0.9.0;\n\ncontract cert{\n\n    address admin;\n\n    constructor() {\n        admin=msg.sender;\n    }\n\n    struct institute {\n        string name;\n        string acr;\n        string link;\n        string[] course;\n        bool del;\n    }\n\n    mapping(address=>institute) institutes;\n    address[] InstAddressList;\n    uint instcnt = 0;\n\n    function addInstitute(address instad,string memory _name,string memory _acr,string memory _link,string[] memory _course) public{\n        if(msg.sender != admin)\n            return ;\n\n        institutes[instad] = institute(_name,_acr,_link,_course,false);\n        InstAddressList.push(instad);\n        instcnt = instcnt + 1;\n    }\n\n    function viewInstitute(address instad) public view returns (institute memory i)\n    {\n        string[] memory es;\n        institute memory t = institute(\"invalid\",\"inv\",\"null\",es,false);\n\n        if(msg.sender != admin)\n            return t;\n        \n        if(institutes[instad].del == true)\n            return t;\n\n        return (institutes[instad]);\n    }\n\n    function updateInstitute(address instad,string memory _name,string memory _acr,string memory _link,string[] memory _course) public {\n        if(institutes[msg.sender].del == true)\n            return;\n\n        institutes[instad].name = _name;\n        institutes[instad].acr = _acr;\n        institutes[instad].link = _link;\n\n        delete institutes[instad];\n        for(uint i=0;i<_course.length;i++)\n            institutes[instad].course.push(_course[i]);   \n    } \n    \n    function deleteInstitute(address instad) public {\n        if(msg.sender != admin)\n            return;\n        institutes[instad].del = true;\n        instcnt = instcnt - 1;\n    }\n\n    function viewAllInstitutes() public view returns (institute[] memory)  {\n        \n        institute[] memory ans = new institute[](instcnt);\n        // if(msg.sender != admin)\n        //     return ans;\n        uint j = 0;\n        for(uint i=0;i<InstAddressList.length;i++)\n        {\n            if(institutes[InstAddressList[i]].del == false)\n            {\n                ans[j] = institutes[InstAddressList[i]];\n                j = j  +1 ;\n            }\n        }\n        return ans;\n    }\n\n    mapping(address=>string) students;\n    address[] StudAddressList;\n    uint studcnt = 0;    \n\n    function addStudent(address studad,string memory _name) public{\n        students[studad] = _name;\n    }\n\n    struct certificate{\n        address stud;\n        address inst;\n        string course;\n        int duration;  \n        bool del; \n    }   \n\n    mapping(address=>certificate) certificates;\n    address[] certAddressList;\n\n    function issueCertificate(address certad,address instad,address studad,string memory _course,int dur) public\n    {\n        if(institutes[instad].del == true)\n            return;\n        if(institutes[msg.sender].del == true)\n            return;\n        certificates[certad] = certificate(instad,studad,_course,dur,false);\n        certAddressList.push(certad);\n    }\n\n    function revCertificate(address certad) public\n    {\n        if(institutes[msg.sender].del == true)\n            return;\n        if(institutes[certificates[certad].inst].del == true)\n            return;\n\n        certificates[certad].del = true;\n    }\n\n    function viewCertificate(address certad) public view returns (certificate memory){\n        return certificates[certad];\n    }\n    function viewStudCert(address studad) public view returns (certificate[] memory){\n        uint cnt = 0;\n        for(uint i=0;i<certAddressList.length;i++)\n        {\n            if(certificates[certAddressList[i]].del  == false)\n            {\n                if(certificates[certAddressList[i]].stud == studad)\n                {\n                    if(institutes[certificates[certAddressList[i]].inst].del == false)\n                        cnt = cnt + 1;\n                }\n            }\n        }\n\n        certificate[] memory ans = new certificate[](cnt);\n        uint j = 0;\n        for(uint i=0;i<cnt;i++)\n        {\n            if(certificates[certAddressList[i]].del  == false)\n            {\n                if(certificates[certAddressList[i]].stud == studad)\n                {\n                    if(institutes[certificates[certAddressList[i]].inst].del == false)\n                    {\n                            ans[j] = certificates[certAddressList[i]];\n                            j = j + 1;\n                    }\n                }\n            }         \n        }\n        return ans;\n    }\n\n}   ",
  "sourcePath": "F:\\Certify-main\\contracts\\cert.sol",
  "compiler": {
    "name": "solc",
    "version": "0.8.20+commit.a1b79de6.Emscripten.clang"
  },
  "schemaVersion": "3.4.16",
  "updatedAt": "2025-03-19T19:07:30.160Z",
  "networkType": "ethereum",
  "devdoc": {
    "kind": "dev",
    "methods": {},
    "version": 1
  },
  "userdoc": {
    "kind": "user",
    "methods": {},
    "version": 1
  }
}